:100000000C9434000C943E000C943E000C943E0082
:100010000C943E000C943E000C943E000C943E0068
:100020000C943E000C943E000C943E000C943E0058
:100030000C943E000C943E000C943E000C943E0048
:100040000C943E000C943E000C943E000C943E0038
:100050000C943E000C943E000C943E000C943E0028
:100060000C943E000C943E0011241FBECFEFD8E04C
:10007000DEBFCDBF0E946B000C94A0000C9400006A
:100080001092C5008093C40088E18093C10086E08F
:100090008093C20008958091C0008823E4F7809186
:1000A000C600089585B1816085B92FEF80E792E0A1
:1000B000215080409040E1F700C0000085B18E7F64
:1000C00085B92FEF80E792E0215080409040E1F722
:1000D00000C00000089587B1836087B98AB182604B
:1000E0008AB98AB18E7F8AB988B1836088B989E07C
:1000F00084B983E30E944000C0E003C00E94520024
:10010000CF5FC430D8F30E944B00823369F018F4FB
:10011000813331F0F8CF833359F0843369F0F3CF72
:1001200088B1816088B9EFCF88B18E7F88B9EBCF75
:1001300088B1826088B9E7CF88B18D7F88B9E3CF75
:04014000F894FFCF61
:00000001FF
